:020000040800F2
:1000000070070020ED0100082908000821080008F9
:100010002508000805070008070D0008000000007B
:10002000000000000000000000000000950900082A
:1000300009070008000000009D080008810A000868
:10004000070200080702000807020008070200086C
:10005000070200080702000807020008070200085C
:10006000070200080702000807020008070200084C
:10007000070200080702000807020008070200083C
:10008000070200080702000807020008070200082C
:10009000070200080702000807020008070200081C
:1000A000070200080702000807020008070200080C
:1000B00007020008070200080702000807020008FC
:1000C00007020008070200080702000807020008EC
:1000D00007020008E50A00080702000807020008F6
:1000E00007020008070200080702000807020008CC
:1000F00007020008070200080702000807020008BC
:1001000007020008070200080702000807020008AB
:10011000070200080702000807020008070200089B
:10012000070200080702000807020008070200088B
:1001300000F002F800F04BF80AA090E8000C8244AE
:100140008344AAF10107DA4501D100F040F8AFF28B
:10015000090EBAE80F0013F0010F18BFFB1A43F0A5
:1001600001031847880D0000A80D0000103A24BFB5
:1001700078C878C1FAD8520724BF30C830C144BF0C
:1001800004680C607047000000230024002500264E
:10019000103A28BF78C1FBD8520728BF30C148BFEA
:1001A0000B607047642900F0AD80732900F067810F
:1001B000002070471FB500F04DFA04000020002118
:1001C00000F07EFE401C60601FBD10B510BD00F049
:1001D0001CFA1146FFF7EEFF00F0A8FD00F04CFA04
:1001E00003B4FFF7F2FF03BC00F08FFD094880471E
:1001F00009480047FEE7FEE7FEE7FEE7FEE7FEE709
:10020000FEE7FEE7FEE7FEE704480549054A064B20
:1002100070470000850A00083101000870010020C5
:10022000700700207003002070030020704700005A
:100230000FB4044910B503AA029800F025F910BCC8
:100240005DF814FB280000202DE9F0410E4604461D
:10025000002020622046E168884730B3252805D079
:10026000D4E901219047206A401CF2E7E16820466A
:1002700000278847050018D0A5F14100192802D8A9
:1002800020354FF400673246294620462760FFF7A5
:1002900089FF40B1012804D0F61D26F00706083674
:1002A000D8E7361DD6E72846DAE7206ABDE8F081B0
:1002B00070B50C460546012A05D02878800600D581
:1002C000EA69002302E0012305E05B1C934202D2AD
:1002D000E05C0028F9D1A869E618C01AA861286A6C
:1002E000184428622846AFF3008004E0D5E90121D4
:1002F00014F8010B9047B442F8D32846AFF30080BE
:1003000070BD00002DE9F0410646002410687529F3
:10031000314616A510D0AFF30080002802DA404223
:1003200013A507E031688A0701D512A502E0490745
:1003300004D511A5012401E0AFF3008000210A22B9
:1003400006F1240709E0B0FBF2FCB0FBF2F302FB7C
:100350001C00303078541846491C0028F3D123463D
:100360002A463046BDE8F04100F01EB8000000000B
:100370002D0000002B0000002000000070B5064694
:1003800000F00EF80468054630460A22002100F00D
:100390008DF82C6070BD7047704770477047000043
:1003A000004870470C0100202DE9F0470D469946A2
:1003B0009246044600F124080168880604D5E069E5
:1003C00021F01001216000E00120A84201DD471B5F
:1003D00000E00027A1697A1902EB0900081AA06160
:1003E0002078C00602D42046AFF30080002608E043
:1003F000D4E901211AF806009047206A401C761CB7
:1004000020624E45F4DB2078C0060AD52046AFF3C3
:10041000008006E0D4E9012130209047206A401C8A
:100420002062381EA7F10107F4DC07E0D4E90121BE
:1004300018F805009047206A401C2062281EA5F18C
:100440000105F3DC2046AFF300802078000602D5DA
:100450000220BDE8F0870120FBE710B5436913B126
:10046000AFF3008001E0FFF723FF012010BD1278F9
:1004700000F124010A7000224A700122EDE71168A0
:100480004FF0FF32E9E70000074B70B50D467B44A3
:1004900000F055F80446284600F0B3F810B14FF0CC
:1004A000FF3070BD204670BD7F0800002DE9F04789
:1004B00091460F4680460446002614F8015B2DB194
:1004C00000F030F80068405DC007F6D12B2D02D057
:1004D0002D2D18D0641E4A463946204600F042F8B9
:1004E00027B13968A14201D1C7F800804FF002045A
:1004F00071050BD54042002803DDFFF751FF046072
:10050000A007BDE8F08746F48066E4E70028F8DA43
:10051000FFF746FF04606FF00040F2E700487047C5
:100520000C01002010B500F095F8001D10BD00BFB3
:100530009109000001694A1C02610878704700B502
:100540008FB0CDE901310021059105497944CDE90C
:10055000031011466846FFF777FE0FB000BD00009C
:10056000E5FFFFFF2DE9F05F824615468B46002729
:100570000AF10104B9460078302801D09DB113E09A
:1005800014F8010B0127782803D0582801D045B171
:100590000AE00DB1102D07D1002714F8010B10252A
:1005A00002E0082500E00A250026B0460EE005FB23
:1005B000080005FB06F101271FFA80F801EB104641
:1005C000B6F5803F00D3B94614F8010B294600F078
:1005D00045F80028EBDABBF1000F05D00FB1641E1F
:1005E00000E05446CBF80040B9F1000F06D0FFF709
:1005F000D7FE02210160C81EBDE8F09F48EA064010
:10060000FAE7007B00F0800070477546FFF786FF31
:10061000AE4605006946534620F00700854618B0EF
:1006200020B5FFF7F1FDBDE820404FF000064FF088
:1006300000074FF000084FF0000B21F00701AC4617
:10064000ACE8C009ACE8C009ACE8C009ACE8C00936
:100650008D467047004870472C0100203A2800D290
:10066000303820F02002412A01D3A2F1370088421D
:1006700001D34FF0FF3070470446AFF300802046AF
:10068000FFF7AEFD4FF0013C50F8042B51F8043B4E
:100690009A4221D1A2EB0C03934313EACC1317D156
:1006A00050F8042B51F8043B9A4215D1A2EB0C03ED
:1006B000934313EACC130BD150F8042B51F8043BAD
:1006C0009A4209D1A2EB0C03934313EACC13DBD07B
:1006D0004FF00000704700BFD01A01BAB1FA81F1A3
:1006E00001F0180122FA01F0CB40C1F12001DBB288
:1006F000C0B2C01A2CFA01F3D11A914311EAC31106
:10070000E6D1704700BFFEE770472DE9F041024691
:1007100000250026002000230024002791F803C0B4
:100720000CF00F0591F803C00CF0100CBCF1000F99
:1007300003D091F802C04CEA050591F800C0BCF165
:10074000000F31D0146800202BE04FF0010C0CFAA0
:1007500000F3B1F800C00CEA03069E4220D18300EA
:100760004FF00F0C0CFA03F7BC4305FA03FC4CEAFC
:10077000040491F803C0BCF1280F06D14FF0010C1E
:100780000CFA00FCC2F814C00AE091F803C0BCF1F6
:10079000480F05D14FF0010C0CFA00FCC2F810C054
:1007A000401C0828D1D31460B1F800C0BCF1FF0F81
:1007B00034DD546800202EE000F1080C4FF00108F1
:1007C00008FA0CF3B1F800C00CEA03069E4221D1EE
:1007D00083004FF00F0C0CFA03F7BC4305FA03FC3F
:1007E0004CEA040491F803C0BCF1280F05D100F1D4
:1007F000080C08FA0CF8C2F8148091F803C0BCF198
:10080000480F07D100F1080C4FF0010808FA0CF866
:10081000C2F81080401C0828CED35460BDE8F08197
:1008200000BFFEE700BFFEE77047000070B5002183
:1008300000230F22C47804B3154C246804F4E06448
:10084000C4F5E064210AC1F10403CA40447804FA03
:1008500003F184781440214309010E4C0678A15518
:10086000047804F01F050124AC4005786D11AD003B
:1008700005F1E025C5F8004109E0047804F01F0502
:100880000124AC40044D0678761145F8264070BD31
:100890000CED00E000E400E080E100E070470000C3
:1008A00029B1064A92690243044B9A6104E0034A63
:1008B00092698243014B9A61704700000010024028
:1008C00030B500210022002400232D4D6D6805F075
:1008D0000C0121B1042905D0082923D105E0294DB7
:1008E000056022E0274D05601FE0254D6D6805F489
:1008F0007012234D6D6805F48034022505EB924299
:100900001CB9214D554305600BE01D4D6D6805F484
:1009100000351DB11C4D5543056002E0194D55438E
:10092000056002E0174D056000BF00BF144D6D6803
:1009300005F0F0010909154D6B5C0568DD40456067
:100940000F4D6D6805F4E061090A104D6B5C456858
:10095000DD4085600A4D6D6805F46051C90A0B4D94
:100960006B5C4568DD40C560054D6D6805F4404130
:10097000890B074D6B5CC568B5FBF3F5056130BDB0
:100980000010024000127A0000093D002E000020F5
:100990003E000020704710B500F002F810BD0000C6
:1009A0000CB50020019000903348006840F480307E
:1009B0003149086000BF3048006800F40030009002
:1009C0000198401C0190009818B90198B0F5A06FEB
:1009D000F1D12948006800F4003010B101200090E6
:1009E00001E0002000900098012843D123480068CE
:1009F00040F01000214908600846006820F003001C
:100A000008600846006840F0020008601A48406824
:100A1000194948600846406848600846406840F404
:100A2000806048600846406820F47C1048600846B2
:100A3000406840F4E81048600846006840F0807064
:100A4000086000BF0C48006800F000700028F9D072
:100A50000948406820F0030007494860084640689C
:100A600040F00200486000BF0348406800F00C00FE
:100A70000828F9D10CBD00000010024000200240FF
:100A80007047000010B51348006840F0010011499C
:100A9000086008464068104908400E49486008460A
:100AA00000680E4908400B4908600846006820F4B9
:100AB000802008600846406820F4FE0048604FF43B
:100AC0001F008860FFF767FF4FF00060044908606F
:100AD00010BD0000001002400000FFF8FFFFF6FE0E
:100AE00008ED00E010B540F225511D4800F04AF82D
:100AF00010B31B4800F002F9C4B21A48008800F491
:100B00000040C8B91748008800F4804060B10A2C42
:100B100003D000201349088020E01248008840F4E8
:100B200000401049088019E00D2C06D10D480088BE
:100B300040F480400B49088010E00A480088C0F368
:100B40000D0009490C5407480088401C05490880DD
:100B500008460088C72801DD0020088010BD00007D
:100B6000003801402C0000204400002021B182897F
:100B700042F40052828104E082894DF6FF731A40EC
:100B80008281704770B502460024002300250020B2
:100B900040F66A16B14200D100BFC1F3421501F020
:100BA0001F03012606FA03F3012D02D19689334073
:100BB00006E0022D02D1168A334001E0968A3340C6
:100BC0000C12012606FA04F41688344013B10CB155
:100BD000012000E0002070BDF0B50346002400268F
:100BE0000025002040F66A17B94200D100BF184620
:100BF000C1F3421401F01F06012707FA06F5012C84
:100C000001D10C3004E0022C01D1103000E014308E
:100C10001AB107682F43076002E00768AF43076017
:100C2000F0BD00002DE9F04786B005460E460024D1
:100C3000A24600BFA1460027B08900B100BF2F46E1
:100C40002C8A4CF6FF700440F08804432C82AC8957
:100C50004EF6F3100440B088318908437189084387
:100C60000443AC81AC8A4FF6FF400440B089044392
:100C7000AC8201A8FFF724FE1F48874202D1DDF8AD
:100C800010A001E0DDF80CA0A88900F4004040B1FC
:100C90000AEBCA0000EB0A1031684900B0FBF1F81A
:100CA00007E00AEBCA0000EB0A1031688900B0FBCC
:100CB000F1F86420B8FBF0F004012009642101FB85
:100CC0001089A88900F4004040B1322000EBC9002F
:100CD000B0FBF1F000F00700044308E0322000EB25
:100CE00009106421B0FBF1F000F00F0004432C81E7
:100CF00006B0BDE8F0870000003801400146888852
:100D0000C0F30800704700BFFEE7014600BF704710
:100D100000BF054A128802F04002002AF9D0C2B290
:100D2000014B1B1D1A807047003801400EB54FF46F
:100D3000E13000F075F82E482E4908600846016839
:100D40002DA0FFF775FA00202D4908700CE0002057
:100D50002B49097801EB4101264A12685054284872
:100D60000078401C26490870254800780528EEDBED
:100D700020480068401C1F49086008460068FFF7CB
:100D8000FDFA204908701B480068C01CFFF7F6FAFE
:100D90001C49487017480068801DFFF7EFFA194991
:100DA0008870144800680930FFF7E8FA1549C870E0
:100DB000104800680C30FFF7E1FA124908710D483D
:100DC00000680F30FFF7DAFA0E494871084640799B
:100DD00009790C4AD2780832CDE9002102900948FD
:100DE00083784278017808A0FFF722FA00BFFEE777
:100DF000000000201800002025730D0A00000000EC
:100E00002000002021000020323025642C25642C95
:100E100025642C25642C25642C25640D0A00000013
:100E200010B586B00446012144F20400FFF738FDF6
:100E30004FF40070ADF8140003208DF81600182050
:100E40008DF8170005A91C48FFF75FFC4FF4806080
:100E5000ADF8140004208DF8170005A91648FFF717
:100E600054FC25208DF8000003208DF801008DF83A
:100E7000020001208DF803006846FFF7D7FC0194BB
:100E80000020ADF80800ADF80A00ADF80C00ADF890
:100E900010000C20ADF80E0001A90848FFF7C2FEB3
:100EA000012240F225510548FFF796FE0121034833
:100EB000FFF75CFE06B010BD00080140003801409D
:100EC00010B500290AD00878002807D005487844D2
:100ED000FFF7D8FB002801D0002010BD024878445D
:100EE00010BD00003E000000360000001C1000088D
:100EF00000000020440000006C01000860100008A1
:100F0000440000202C0700008801000810010000A8
:100F100043000000F8FFFFFF0040404040404040D9
:100F200040404141414141404040404040404040BC
:100F30004040404040404040400502020202020260
:100F400002020202020202020220202020202020AF
:100F500020202002020202020202909090909090C3
:100F60001010101010101010101010101010101081
:100F700010101010020202020202888888888888F5
:100F800008080808080808080808080808080808E1
:100F900008080808020202024000000000000000E9
:100FA0000000000000000000000000000000000041
:100FB0000000000000000000000000000000000031
:100FC0000000000000000000000000000000000021
:100FD0000000000000000000000000000000000011
:100FE0000000000000000000000000000000000001
:100FF00000000000000000000000000000000000F1
:1010000000000000000000000000000000000000E0
:101010000000000000000000000000002231392F15
:1010200030312F30382C30383A32343A30382B3097
:101030003822000000000000000000000000000056
:10104000000000000000000000000000000001029D
:10105000030401020304060708090204060800004D
:0400000508000131BD
:00000001FF
